:020000040800F2
:10000000D00500200101000887230008D71C000844
:1000100085230008BF0A0008292A00080000000004
:100020000000000000000000000000001D26000885
:10003000C10A0008000000006125000875260008BC
:100040001B0100081B0100081B0100081B01000820
:100050001B0100081B0100081B0100081B01000810
:100060001B0100081B0100081B0100081B01000800
:100070001B0100081B0100081B0100081B010008F0
:100080001B0100081B0100081B0100081B010008E0
:100090001B0100081B0100081B0100081B010008D0
:1000A0001B010008D92600081B0100081B010008DD
:1000B0001B0100081B010008000000001B010008D4
:1000C0001B01000800000000000000001B010008E8
:1000D000000000001B0100081B01000800000000D8
:1000E0001B0100081B0100081B010008DFF80CD0F1
:1000F00000F082FC0048004701490008D0050020BC
:100100000648804706480047FEE7FEE7FEE7FEE7B1
:10011000FEE7FEE7FEE7FEE7FEE7FEE7D52600087E
:10012000ED0000082DE9F0410024061B254671F181
:10013000000605DA01240027D0EB070067EB010178
:10014000161E73F1000605DA0027D2EB070201251F
:1001500067EB030300F022FB86460E4617469C46DB
:10016000AC4204D00025D0EB050E65EB010624B1AE
:100170000020D2EB000760EB030C704631463A4694
:100180006346BDE8F081202A04DB203A21FA02F020
:100190000021704721FA02F3D040C2F120029140C1
:1001A000084319467047D2B201E000F8012B491EFE
:1001B000FBD270470022F6E710B513460A46044604
:1001C0001946FFF7F0FF204610BD30B50446002069
:1001D000034600E05B1C934203D2E05CCD5C401B15
:1001E000F8D030BDF0B480EA0102D40F4200B2EB87
:1001F000410F02D20246084611464A0042D0C30DC2
:10020000DDB2C1F3C752AD1A202D35DAC1F31601A4
:1002100041F4000204B15242C5F1200602FA06F18F
:100220002A411044B3EBD05F23D0C4B1012DA0EB21
:10023000C35009DCF0BC4FF0004202EAC352DBB20B
:1002400000F5000000F005BB400000F1807000EBFD
:10025000C350A0F1807040EAD170490009E049081C
:1002600041EAC071A0EBC35000F50000400800EB6C
:10027000C350F0BC00F0E4BA6142012202EB41013C
:10028000001BF6E7F0BC704781F00041AAE780F060
:100290000040A7E780EA010210B502F000434000E9
:1002A00022D04A001FD0010E01EB1261C0F35600AC
:1002B000C2F3560240F4000042F40002A0FB022008
:1002C00000047F39140400D0401C50EA124001D4CD
:1002D0004000491EC2B20C0604EBD010401C40087E
:1002E000802A02D003E0002010BD20F00100002988
:1002F00000DA0020184310BD30B480EA010202F099
:10030000004530F0004221F0004013D090B1C30D01
:10031000D40DC2F31601C0F31600E41A41F4000133
:1003200040F400027D34914201D3641C00E0490096
:10033000002C02DA30BC002070474FF4000000238C
:10034000914201D3891A034340084FEA4101F7D192
:1003500051B1914202D14FF0004105E002D24FF07D
:10036000010101E06FF0010103EBC450284430BCEF
:1003700000F066BA420005D0C0F3C7525242914223
:1003800001DC0020704700EBC15070472DE9FE4FA3
:10039000804681EA0300C00F0C46009021F0004126
:1003A00023F00045B8EB0200A94105D240462146A2
:1003B00090461C460B46024623F00040104347D0AF
:1003C000270DC7F30A00C3F30A510290401A0190A7
:1003D00040286BDAC3F3130040F4801B0098924668
:1003E00020B10023D2EB030A63EB0B0B01985946B3
:1003F000C0F14002504600F002FA06460D46504653
:100400005946019A00F00AFA10EB080061410024F5
:1004100087EA115284EAE7731A4340D0009A62B324
:10042000019A012A4FEA075215DC001B61EB020119
:100430004FF0004202EA0752CDE90042001C41F5AC
:10044000801132462B4600F041FA03B0BDE8F08F30
:1004500040462146F9E7001B61EB0201001C41F513
:10046000801300185B412018A2F5001747EB030129
:1004700040EAD570B6196D4111E06D084FEA3606B5
:1004800045EAC0754FEA0752001B61EB0201001CF0
:1004900041F5801149084FEA3000001951413246B8
:1004A0002B4603B0BDE8F04F00F001BA00980122DE
:1004B00040000023D0EB020263EBE073009821467A
:1004C0004FEAE074B8EB000061EB0401E9E783F068
:1004D00000435BE781F0004158E72DE9FE4F81EAD8
:1004E000030404F0004421F0004100944FF0000B9D
:1004F00023F0004350EA01045ED052EA03045BD0CB
:10050000C3F30A54C1F30A552C44A4F2F334019402
:10051000A0FB0254C1F3130141F48011C3F3130390
:1005200043F4801301FB024400FB034E840A970A44
:1005300044EA815447EA8357A4FB076802958D0A71
:1005400005FB07854FEA932C04FB0C542705029DFD
:100550004FEA065847EA1637B5EB08056EEB070C6D
:10056000870E920E47EA811742EA8312A7FB020127
:10057000B6EB0B0164EB00042B0D43EA0C335E1861
:1005800044EB1C50DA465146E7FB0201C5F3130465
:100590004FEA0B3343EA14534FEA0432019C43EA17
:1005A0000603A4F10C040294009CCDE900B400F011
:1005B0008DF903B0BDE8F08F00200146F9E72DE981
:1005C000F04D81EA030404F0004B21F0004514468D
:1005D0004FF0000A23F0004150EA050220D054EA0F
:1005E00001021DD0C5F30A570246C5F31303C1F338
:1005F0001300C1F30A5640F4801543F48013A7EBAF
:100600000608101BD64608F2FD3873EB050002D32E
:1006100008F1010801E092185B41B8F1000F03DA1C
:1006200000200146BDE8F08D00204FF48011064601
:1006300084460EE0171B73EB050705D3121B63EB13
:10064000050306434CEA010C49084FEA30009218B2
:100650005B4150EA0107EDD152EA030012D082EA71
:10066000040083EA0501084305D0101BAB4106D204
:100670000122002306E000224FF0004302E06FF069
:10068000010253101AEB06004CEB085110EB0A0064
:1006900041EB0B01BDE8F04D00F009B9C10F80EA54
:1006A000E0700844CA079623002100F0D2B89623D0
:1006B0000022114600F0CDB800F0004220F00040CA
:1006C000C10DC0F3160040F400007F2901DA0020BC
:1006D0007047962903DCC1F19601C84001E09639C4
:1006E0008840002AF4D04042704720F00040C10DFD
:1006F000C0F3160040F400007F2901DA00207047A3
:10070000962903DCC1F19601C840704796398840AC
:10071000704700F0004230F000400AD0C10D01F5F2
:100720006071C0F3160042EA0151C208400711434C
:10073000704700200146704701F0004330B421F0BB
:10074000004150EA010206D00A0DA2F56072C1F321
:100750001301002A02DC30BC00207047440F44EA39
:10076000C104C100E01830BC00EBC25000F068B812
:1007700030B50B46014600202022012409E021FA71
:1007800002F59D4205D303FA02F5491B04FA02F56E
:100790002844151EA2F10102F1DC30BD2DE9F05F05
:1007A0000546002092469B468846064681464024E0
:1007B0001BE02846414647462246FFF7E4FC5346E5
:1007C0005A46C01A914110D311461846224600F0ED
:1007D00016F82D1A67EB01084F462246012000212A
:1007E00000F00DF817EB00094E41201EA4F10104A2
:1007F000DFDC484631462A464346BDE8F09F202AC2
:1008000004DB203A00FA02F1002070479140C2F167
:10081000200320FA03F3194390407047202A06DB97
:10082000CB17203A41FA02F043EAE07306E041FABE
:1008300002F3D040C2F120029140084319467047AC
:100840000029A8BF7047401C490008BF20F00100E4
:10085000704710B4B0FA80FC00FA0CF050EA0104C2
:1008600004BF10BC704749B1CCF1200421FA04F454
:1008700011FA0CF118BF012121430843A3EB0C012D
:10088000CB1D4FEA00614FEA102042BF002010BC90
:10089000704700EBC35010440029A4BF10BC704740
:1008A000401C490008BF20F0010010BC704710B583
:1008B000141E73F1000408DA401C41F10001921883
:1008C0005B411A4301D120F0010010BD2DE9F04D2C
:1008D00092469B4611B1B1FA81F202E0B0FA80F281
:1008E00020329046FFF78BFF04460F4640EA0A008D
:1008F00041EA0B0153465A46084313D0114653EAC6
:10090000010019D0C8F140025046FFF73CFC0546F3
:100910000E46504659464246FFF771FF084305D040
:10092000012004E020463946BDE8F08D0020054353
:1009300046EAE0762C4337430A986305E40AA0EBC5
:1009400008000022FD0A44EA47540A3002D500207C
:100950000146E9E7010510196941DDE9084500197B
:100960006941BDE8F04DA2E770B521F000430343B3
:100970000CD0C1F30A550024D5EB040564EB040345
:10098000D617AD1AB34102DB0020014670BD201816
:1009900041EB025170BDC1F30A52C1F3130140F2A1
:1009A000FF3341F480119A4202DA00200146704779
:1009B00040F233439A42A2F2334202DC5242FFF742
:1009C000E2BBFFF71CBF000030B5041E71F100044C
:1009D00004DB4FF00044404264EB0101141E73F14C
:1009E000000405DB1C464FF00043524263EB040356
:1009F000994208BF904230BD064C074D06E0E068C2
:100A000040F0010394E8070098471034AC42F6D355
:100A1000FFF770FB70660008906600082DE9F04D46
:100A200000231A461B1A8A4103DB00200146BDE859
:100A3000F08DC1F30A52C1F3130141F480154FF058
:100A4000000BD10702D100186D41521E0027044649
:100A500040F2FF11384601EB620A3E4680460246EC
:100A600000204FF48011FFF78EFBC2197141BB18B3
:100A700046EB0100B4EB030C75EB000C04D3E41A55
:100A800065EB000517460E46241908F101006D417B
:100A900080463428E3DDF91946EB0600091BA8411E
:100AA00003D24FF0FF32134601E0002213461BEB46
:100AB000070046EB0A51BDE8F04DFFF7F8BEFEE730
:100AC000704772B6FEE700000022012801D028B16D
:100AD00009E006480168486A404202E004480168AB
:100AE000486A4A6200B2FFF7D9BD0000EC0000205E
:100AF0003401002070B5044600F0F8F80546601C8B
:100B000002D004480078044400F0F0F8401BA042F2
:100B1000FAD370BD300000202DE9F84FDFF89C912A
:100B2000002409F1040A0AF1040B23460F270BF1F4
:100B3000040EBBE00125A5402A40AA4276D1DFF889
:100B400080C14E68A6EB0C0866452BD00DDC032E49
:100B500034D005DC36B3012E19D0022E2FD11BE084
:100B6000112E16D0122E2AD119E0B8F5881F19D0EF
:100B700006DCB8F5803F15D0B8F5801F1FD111E015
:100B8000B8F5001F0ED0B8F5041F18D10AE0CB68E5
:100B900015E0CB681B1D12E0CB6808330FE0CB6873
:100BA0000C330CE08B682BB1012B4FF0080303D002
:100BB000456104E0042302E0056100E00023FF2A10
:100BC00001D8064601E000F104064FEA840501D988
:100BD000A5F12005D6F8008007FA05FC28EA0C08E4
:100BE00003FA05F548EA0508C6F800804D68ED00EF
:100BF0005BD5344DAE6946F00106AE61AD6924F0B7
:100C0000030605F0010500952F4D06EB050CDCF8F9
:100C10000850A607360F07FA06F825EA0805DFF898
:100C2000AC80404503D14FF0000810E03DE0DFF814
:100C3000A080404502D14FF0010808E0DFF8948021
:100C4000404502D14FF0020801E04FF0030808FAD6
:100C500006F848EA0508CCF808804D68D9F8006025
:100C6000ED034D4601D5164300E096432E604D68D6
:100C7000DAF80060AD03554601D5164300E096430F
:100C80002E604D68DBF80060ED025D4601D516432D
:100C900000E096432E604D68DEF80060AD027546B8
:100CA00001D5164300E096432E60641C0A6832FAB0
:100CB00004F57FF43FAFBDE8F88F00000004014069
:100CC0000000111000100240000001400008014027
:100CD000000C0140001001408068084000D0012055
:100CE00070470AB1016170470904FBE70148806859
:100CF00070470000300000200248816802781144EB
:100D00008160704730000020074810B5016841F04D
:100D100010010160032000F075F80F2000F006F8C4
:100D200000F024F8002010BD0020024070B50D4DE9
:100D300004464FF47A712878B1FBF0F00A4909684B
:100D4000B1FBF0F000F0F0FA48B9102C07D2002205
:100D50002146501E00F036F800206C6070BD012066
:100D600070BD0000300000203C0000200C4808B599
:100D7000816941F001018161816901F00101009106
:100D8000C16941F08051C161C06900F0805000909C
:100D90000448416821F0E06141F00071416008BD04
:100DA0000010024000000140002809DB00F01F0293
:100DB000012191404009800000F1E020C0F80011BD
:100DC00070470000F0B40E4B1B680C46C3F30223BF
:100DD000C3F10705042D00D90425191D072901D2E7
:100DE000002300E0DB1E012606FA05F1491E214022
:100DF00099409E40761E16403143F0BC01F03ABE49
:100E00000CED00E0064900F0070208684FF6FF030A
:100E1000184040EA0220034A10430860704700006F
:100E20000CED00E00000FA052DE9F0470F46050043
:100E300061D0434E306800F00700B84209D23068F4
:100E400020F0070038433060306800F00700B842F7
:100E500051D128683B4C810712D5400703D5606803
:100E600040F4E06060602878000703D5606840F4D3
:100E7000605060606068A96820F0F000084360601E
:100E80002878C00728D06868012810D02168022877
:100E900010D0890700292EDA616821F0030101438F
:100EA0006160FFF723FF804641F288390DE0216839
:100EB0008903EFE78901EDE7FFF718FFA0EB0801D1
:100EC000494502D90320BDE8F0876068696800F0F1
:100ED0000C00B0EB810FEFD1306800F00700B84292
:100EE0000BD9306820F0070038433060306800F0DC
:100EF0000700B84201D00120E5E72878400705D572
:100F00006068E96820F4E0600843606028780007C2
:100F100006D56068296920F4605040EAC10060602D
:100F200000F038F86168084AC1F30311515CC84009
:100F30000649086006480068FFF7F8FE0020C2E78F
:100F40000020024000100240CC5800083C00002065
:100F5000340000200448054900684968044AC1F388
:100F60000221515CC84070473C0000200010024044
:100F7000DC5800080448054900684968044AC1F380
:100F8000C221515CC84070473C0000200010024064
:100F9000DC58000813A185B00FC98DE80F0015A01B
:100FA000154A00680490516801F00C00042804D030
:100FB000082804D0114805B070471148FBE7C1F379
:100FC0008343C9031DF8030009D5516804AAC1F37E
:100FD0004041515C0A4A5043B0FBF1F0EBE709494C
:100FE0004843E8E702030405060708090A0B0C0D4D
:100FF0000E0F1010010200000010024000127A00D3
:10100000001BB70000093D002DE9F84F040070D027
:101010002078C04DC00749D06868C0F3810001281E
:1010200007D06868C0F38100022809D16868C0034E
:1010300006D52868800339D560680028E7D035E0F8
:101040006068B0F5803F0BD010B1B0F5A02F11D083
:10105000286820F480302860286820F4802002E08E
:10106000286840F480302860606890B1FFF73EFE49
:1010700006460AE0286840F480202860F0E700BFB8
:10108000FFF734FE801B642873D828688003F7D5E7
:101090000CE0FFF72BFE064605E000BFFFF726FE3B
:1010A000801B6428F0D828688003F7D420789A4EF3
:1010B00080074FF001094FF0000839D5686810F03B
:1010C0000C0F07D06868C0F38100022809D1686856
:1010D000C00306D42868800714D52069012808D1E8
:1010E00010E02069B0B1C6F80090FFF7FFFD074699
:1010F00005E00AE1FFF7FAFDC01B0228C4D8286802
:101100008007F7D52868616920F0F80040EAC1003F
:1011100028600DE0C6F80080FFF7E8FD074604E010
:10112000FFF7E4FDC01B022823D828688007F7D406
:10113000207800072CD57948A169D9B1C0F8009072
:10114000FFF7D4FD074604E0FFF7D0FDC01B0228DF
:101150000FD8686A8007F7D571484FF4FA510068D4
:10116000B0FBF1F0009000BF0098411E0091FAD250
:101170000EE080E0C0F80080FFF7B8FD074604E00D
:10118000FFF7B4FDC01B022875D8686A8007F7D442
:101190002078400760D5E8690027C00008D4E869D6
:1011A00040F08050E861E869012700F0805000902D
:1011B0005C480168C90513D40168834641F4807115
:1011C0000160FFF793FD824606E000BFFFF78EFD4A
:1011D000A0EB0A0064284ED8DBF80000C005F5D566
:1011E000E06801280AD008B1052813D0286A20F049
:1011F00001002862286A20F0040002E0286A40F01A
:1012000001002862E06841F2883B98B1FFF76EFD6B
:1012100082460BE0286A40F004002862EEE700BF37
:10122000FFF764FDA0EB0A0159455AD8286A8007E8
:10123000F6D50CE0FFF75AFD824605E0FFF756FDB4
:10124000A0EB0A0159454CD8286A8007F6D41FB193
:10125000E86920F08050E861E06988B36968C1F30B
:101260008101022944D00228C6F8608004D0FFF72B
:101270003DFD044638E034E0FFF738FD074604E062
:10128000FFF734FDC01B02282BD828688001F7D453
:10129000206AB0F5803F05D16868A16820F400306D
:1012A00008436860D4E908010843696821F47411AF
:1012B00008436860C6F86090FFF718FD044606E032
:1012C00025E000BFFFF712FD001B022809D828689F
:1012D0008001F7D51BE000BFFFF708FD001B0228C7
:1012E00002D90320BDE8F88F28688001F4D40EE00D
:1012F0000128F7D06868226A00F48031914204D155
:10130000616A00F47010884201D00120EAE70020F1
:10131000E8E7000000100240000042428004424220
:101320003C0000200070004010B5401EB0F1807FEE
:1013300001D3012010BD4FF0E02460610F21601740
:1013400001F098FB0020A06107202061002010BD63
:101350007047704710B590F83C20012A22D0012236
:1013600080F83C20CA688C6822F4407222434C68A2
:1013700022F4806222430C6822F4006222430C694A
:1013800022F4805222434C6922F400522243C9695C
:10139000002322F480420A4301684A6480F83C300A
:1013A000002010BD022010BD70B590F83C20012A2D
:1013B00023D0012480F83C40022280F83D200368BD
:1013C0005A689D6822F070060A6832435A600C4BD6
:1013D00002689A4205D0B2F1804F02D0094B9A427E
:1013E00004D1496825F080031943916080F83D409D
:1013F000002180F83C10084670BD022070BD00003E
:10140000002C01400004004010B5040003D094F803
:101410003D0010B107E0012010BD002084F83C0021
:10142000204600F01FF8022084F83D00211D2068AE
:1014300001F058F9012084F8460084F83E0084F851
:101440003F0084F8400084F8410084F8420084F8AA
:10145000430084F8440084F8450084F83D000020EF
:1014600010BD000008B500680B49884212D10B4836
:10147000816941F4006181618069002200F40060AB
:10148000009011461920FFF79DFCBDE80840192087
:10149000FFF78ABC08BD0000002C0140001002408C
:1014A00090F83D10012901D001207047022180F8F9
:1014B0003D1000680949884205D0B0F1804F02D044
:1014C0000749884204D1816801F00701062903D049
:1014D000016841F00101016000207047002C0140CB
:1014E0000004004090F83D10012901D00120704710
:1014F000022180F83D100168CA6842F00102CA600A
:1015000000680A49884205D0B0F1804F02D00849EE
:10151000884204D1816801F00701062903D00168DF
:1015200041F001010160002070470000002C0140E3
:101530000004004070B5044690F83C00012817D024
:10154000012584F83C50022084F83D002068826820
:1015500022F0770222F47F4282600868502830D05F
:101560000DDC20284DD005DC98B310283BD148E095
:10157000022070BD302844D0402834D139E06028A2
:1015800028D0702806D0B0F5805F2CD0B0F5005F71
:1015900029D10AE0CB68D1E90121206801F0DDF80A
:1015A0002068816841F0770109E0CB68D1E9012129
:1015B000206801F0D2F82068816841F480418160A0
:1015C00011E0CA684968206801F07CF95021206860
:1015D00007E016E0CA684968206801F084F96021D4
:1015E000206801F0C4F884F83D50002084F83C00E5
:1015F00070BDCA684968206801F064F9402120681C
:10160000EFE7226801461046EBE72DE9F0410D4671
:10161000040003D094F83D0018B108E00120BDE8B3
:10162000F081002084F83C00204600F041F80220C0
:1016300084F83D002068816844F20702914381608C
:10164000211D206801F04EF8226890689169166AA1
:101650002B68AF69034340F20330814341EA07211D
:10166000A868EF6908434FF6FC418843E96840EAFF
:101670000720014328692F6A000140EA0730084328
:1016800069686D6926F0220646EA051529439360CC
:101690002268906154F8460B0162012004F81F098A
:1016A000E0752076E0762077A0750020B7E700008F
:1016B00000B585B00021009101910291039102686B
:1016C00018491948B2F1804F19D0184B9A4214D1D9
:1016D000CA6942F00202CA61CA6902F002020492B7
:1016E0008A6942F004028A61896901F00401049167
:1016F000C02100916946FFF70FFA05B000BDCA6925
:1017000042F00102CA61CA6902F0010204928A69C8
:1017100042F004028A61896901F004010491032105
:10172000E7E700000010024000080140000400400C
:1017300070B590F83E60044690F83F5090F8423003
:1017400090F84320022021B104290ED0012E1BD194
:1017500014E0012E18D1012B16D184F83E0084F834
:10176000420001220021206820E0012D0CD1012A35
:101770000AD184F83F0084F8430014E0012D03D11E
:10178000012B01D1012A01D0012070BD84F83E0057
:1017900084F83F0084F8420084F8430001220021CD
:1017A000206800F0CDFF01220421206800F0C8FF6E
:1017B0002068016841F001010160002070BD7047A0
:1017C00070B50446006801694FF00005C9438907F8
:1017D00015D4C168C943890711D4E91E01610120EC
:1017E0002077206880698007204602D0FFF7E7FF56
:1017F00004E000F0BFF8204600F04EF9257720689D
:101800000169C943490717D4C168C943490713D4BB
:101810006FF004010161022020772068806910F4D4
:10182000407F204602D0FFF7CAFF04E000F0A2F894
:10183000204600F031F9257720680169C94309077E
:1018400016D4C168C943090712D46FF008010161B9
:10185000042020772068C0698007204602D0FFF767
:10186000AEFF04E000F086F8204600F015F9257779
:1018700020680169C943C90617D4C168C943C906AC
:1018800013D46FF010010161082020772068C0692F
:1018900010F4407F204602D0FFF791FF04E000F0F3
:1018A00069F8204600F0F8F8257720680169C943F7
:1018B000C90708D1C168C943C90704D1891E01619C
:1018C000204600F035F920680169C943090609D4AA
:1018D000C168C943090605D46FF080010161204643
:1018E000FFF736FD20680169C943490609D4C1687C
:1018F000C943490605D46FF040010161204600F05C
:101900001FF920680169C94389060BD4C168C9431E
:10191000890607D46FF0200101612046BDE87040C0
:10192000FFF717BD70BD000000B585B00021009124
:1019300001910291039100680B49884212D10B4832
:10194000816941F0040181618069694600F0040009
:1019500004904FF4706000900220019003900448BE
:10196000FFF7DAF805B000BD002C0140001002407E
:1019700000080140704770B5044690F83C000D46E1
:1019800001280AD0012084F83C0042B1042A18D072
:10199000082A2AD00C2A4DD139E0022070BD2068D7
:1019A00000F0EEFE2068816941F008018161206845
:1019B000816921F004018161206881692A691143EC
:1019C00011E0206800F004FF2068816941F40061A3
:1019D00081612068816921F4806181612068816969
:1019E0002A6941EA0221816124E0206800F01CFF9D
:1019F0002068C16941F00801C1612068C16921F016
:101A00000401C1612068C1692A69114311E020689D
:101A100000F036FF2068C16941F40061C1612068AF
:101A2000C16921F48061C1612068C1692A6941EA04
:101A30000221C161002084F83C0070BD10B5040093
:101A400003D094F83D0010B107E0012010BD002044
:101A500084F83C00204600F01EF8022084F83D0087
:101A6000211D206800F03EFE012084F8460084F825
:101A70003E0084F83F0084F8400084F8410084F878
:101A8000420084F8430084F8440084F8450084F858
:101A90003D00002010BD70477047000010B504469F
:101AA000022249B104290ED0082913D094F841002C
:101AB000012816D0012010BD94F83E000128F9D16C
:101AC00084F83E200FE094F83F000128F2D184F81A
:101AD0003F2008E094F840000128EBD184F8402032
:101AE00001E084F841200122206800F029FE0E491F
:101AF0002068884203D1426C42F40042426420686C
:101B0000884205D0B0F1804F02D00849884204D104
:101B1000816801F00701062903D0016841F0010145
:101B20000160002010BD0000002C014000040040B6
:101B30000249884201D100F027BC7047A400002070
:101B4000704770B5040004D094F83D00002510B132
:101B500006E0012070BD84F83C50204600F022F8D9
:101B6000242084F83D002068C16821F40051C16040
:101B7000204600F0CBFE2068016921F4904101610C
:101B80002068416921F02A0141612068C16841F45F
:101B90000051C1602564202084F83D0084F83E0097
:101BA000002070BD30B585B00024009401940294EB
:101BB00003940068174988422AD11748816941F483
:101BC00080418161816901F480410491816941F022
:101BD000080181618069114D00F0080004904020E7
:101BE0000090022001900320039069462846FEF7EA
:101BF00093FF8020CDE90004694628460294FEF751
:101C00008BFF0748416841F0E06141F00401416009
:101C100005B030BD0038014000100240000C01400A
:101C2000000001402DE9F843044690F83D001F46AE
:101C300016460D4620284CD1C5B1BEB194F83C00E3
:101C4000012846D0012084F83C004FF00008C4F879
:101C50004080212084F83D00FFF748F8A6848146A3
:101C6000E684A068B0F5805F03D004E00120BDE801
:101C7000F883206928B12E465FF0000584F83C8087
:101C80000EE00026FAE78021204600F09BFEA0B976
:101C9000AEB116F8010B21684860E08C401EE0846C
:101CA000E08C4B464FF0000200970028EBD14FF03C
:101CB0004001204600F086FE30B10320D7E735F81A
:101CC000020BC0F30800E6E7202084F83D00002066
:101CD000CDE70220CBE7FEE70F20401EFDD2704784
:101CE00070B50C4D4FF40074002221462846FEF7D3
:101CF000F8FF012211022846FEF7F3FFFFF7ECFF81
:101D0000012221462846FEF7ECFFBDE87040FFF7B0
:101D1000E3BF0000000C01402DE9F0470122154E01
:101D200081465702002439463046FEF7DAFF002587
:101D3000B846B7156006040E012239463046FEF754
:101D4000D0FFFFF7C9FF41463046FEF7C5FF08B197
:101D5000641CE4B2002239463046FEF7C2FFFFF7AA
:101D6000BBFF6D1C082DE5DB484600F06FF82046F0
:101D7000BDE8F087000C01402DE9F041124F00242E
:101D800005464FF40078BE15280601D5012200E073
:101D9000002241463846FEF7A4FFFFF79DFF0122CF
:101DA00031463846FEF79DFFFFF796FF0022314689
:101DB0003846FEF796FF6806050E641C082CE3DB28
:101DC000BDE8F04100F022B8000C014070B50122DE
:101DD0000D4D540221462846FEF783FF01221602CC
:101DE00031462846FEF77DFFFFF776FF00222146A9
:101DF0002846FEF776FFFFF76FFF31462846BDE81D
:101E000070400022FEF76DBF000C014070B501224A
:101E10000D4D540221462846FEF763FFFFF75CFF95
:101E20000122160231462846FEF75BFFFFF754FFFA
:101E300021462846FEF750FF044600223146284638
:101E4000FEF74FFF204670BD000C014070B50E4CF0
:101E50004FF40071012814D000222046FEF741FF04
:101E6000FFF73AFF0122150229462046FEF739FF07
:101E7000FFF732FF29462046BDE870400022FEF7FA
:101E800030BF0122E9E70000000C014010B500F06E
:101E900028F802F065FE05480021026851630268D7
:101EA00091630268D1630068016410BDA400002042
:101EB0007CB514460D4606466B4606224321682033
:101EC00000F05CF800280BD1BDF8001049BA318051
:101ED000BDF8021049BA2980BDF8041049BA218022
:101EE0007CBD10B580216B2000F0ACF86420FEF7BB
:101EF00001FE00216B2000F0A5F8032000F06EF831
:101F0000002000F066F8322000F085F8002138202B
:101F100000F098F800216A2000F094F800212320B6
:101F200000F090F88021372000F08CF8752000F048
:101F30000DF801216B2000F085F800216C2000F0E5
:101F400081F8C82000F067F8002010BD10B50446E5
:101F5000FFF73CFFD020FFF70FFF2046FFF70CFFF5
:101F6000FFF734FFD120FFF707FF0120FFF7D4FE72
:101F70000446FFF7B5FE204610BD00002DE9F041F4
:101F80001D4614460F460646FFF720FF7006000E5A
:101F9000FFF7F2FE3846FFF7EFFEFFF717FF0120CD
:101FA00000EB4600C0B2FFF7E7FE09E0012C0ED0BF
:101FB0005FF00000FFF7B0FE641E05F8010BE4B20D
:101FC000002CF3D1FFF78CFE0020BDE8F08101204A
:101FD000F0E7C006010E1C2000F034B8C006010E68
:101FE0001B2000F02FB8BC2801D3012110E062288B
:101FF00001D302210CE02A2801D3032108E0142890
:1020000001D3042104E00A2801D3052100E00621C0
:102010001A2000F017B810B504464FF47A708442C5
:1020200001D9044602E0042C00D20424B0FBF4F0F1
:10203000401EC1B2192000F005F86008BDE810404C
:10204000FFF7D1BF70B50D460446FFF7BFFED020A5
:10205000FFF792FE2046FFF78FFE2846FFF78CFE23
:10206000FFF73EFE002070BD2DE9F0411E461546EB
:102070000F460446FFF7AAFE6006000EFFF77CFE3F
:102080003846FFF779FE002404E0305DFFF774FE68
:10209000641CE4B2AC42F8D3FFF722FE0020BDE896
:1020A000F08100002DE9F04385B000200090019000
:1020B000029003901E48816941F02001816181698D
:1020C00001F020010491816941F00401816181697D
:1020D00001F004010491816941F008018161806986
:1020E000DFF8508000F008000490012220214046D3
:1020F000FEF7F7FDDFF840904FF4407701223946B4
:102100004846FEF7EEFD20201124012503268DE828
:10211000710069464046FEF7FFFC01AA009782E87D
:10212000700069464846FEF7F7FC05B0BDE8F0834D
:102130000010024000080140000C014010B596B0AC
:1021400000240F9410941194129413941C21684647
:102150001494FEF72FF8202107A8FEF72BF83F482C
:102160003D49C0E9001441F28731C0E902418021B4
:102170000461C0E90541FFF747F908B1FEF7A1FC8A
:102180004FF480500F900FA93448FFF7D3F908B1EE
:10219000FEF797FC3148FFF751FC08B1FEF791FCC0
:1021A000139413A92D481494FFF7FEF808B1FEF715
:1021B00088FC6020CDE90004029403940494059403
:1021C0000022694625480694FFF7D5FB08B1FEF7C3
:1021D00078FC042269462148FFF7CDFB08B1FEF7E1
:1021E00070FC082269461D48FFF7C5FB08B1FEF7E1
:1021F00068FC0C2269461948FFF7BDFB08B1FEF7E1
:1022000060FC0794089409944FF400500A94CDE9B7
:102210000B4007A911480E94FFF79CF808B1FEF790
:1022200050FC0E48FFF75EF900210C48FFF736FC22
:1022300004210A48FFF732FC08210848FFF72EFC6A
:102240000C210648FFF72AFC0448FFF729F9034848
:10225000FFF76AFB16B010BD002C0140A40000205F
:1022600010B58CB024216846FDF7A4FF002418485F
:1022700009944FF080410A94C0E900144FF6FF71B1
:10228000C0E90241046184610320CDE9000401201A
:10229000CDE902040494CDE90540079469460C4851
:1022A0000894FFF7B2F908B1FEF70BFC099409A9ED
:1022B00007480A94FFF778F808B1FEF702FC3C21C2
:1022C0000348FFF735FA0248FFF70CF90CB010BDD0
:1022D000EC00002010B58CB024216846FDF76AFFA1
:1022E00000241948099417490A94C0E900144FF6CC
:1022F000FF71C0E90241046184610320CDE900045B
:102300000120CDE902040494CDE905400794694613
:102310000D480894FFF779F908B1FEF7D2FB09944C
:1023200009A909480A94FFF73FF808B1FEF7C9FB6D
:102330003C210548FFF7FCF90348FFF7D3F80CB040
:1023400010BD000000040040340100200C4810B50E
:102350000A4901604FF4E1314160002181600C22A3
:10236000C160C0E904128161C161FFF7EAFB002886
:1023700003D0BDE81040FEF7A4BB10BD00380140FB
:102380007C010020FEE7FEE770B52A4CA088401CC7
:1023900080B2A08048284BD10020A080207801285E
:1023A00042D1FEF791FBA0620020FEF78DFB0146B3
:1023B000E062A06AFDF716FFFEF77EF96080B4F9CF
:1023C0001600FEF76BF902461B48E16900F0A2F81F
:1023D0006081B4F90210002000F030F8A081B4F957
:1023E00018001038FEF75AF902460A20616A00F018
:1023F00063F8E0816189A2894FF47A7511440A1A61
:10240000084401B2228201F5FA706182A84202D921
:10241000012000F005F9B4F9101001F5FA70A84296
:1024200002D9002000F0FCF8BDE8704000F09AB836
:1024300070BD000000000020000060C070B51C4CA2
:102440000E1A1A4D206AFEF729F92946FDF722FFD8
:1024500005463046FEF722F901461648FDF71AFFF9
:102460002946FDF7BFFEFEF727F92062E169054620
:10247000084442F210720021E061904201DCD04237
:1024800000DAE161E069FEF709F96169FDF702FF31
:1024900006462846FEF702F92169FDF7FBFE3146A4
:1024A000FDF7A0FEBDE87040FEF706B93333333FB9
:1024B000780000209A99993E2DE9F041134C0E4680
:1024C000074690461048A169FDF7E4FE054610480E
:1024D0004146FDF7DFFE2946FDF784FE01466068B0
:1024E000FDF7D8FE05463846FEF7D8F83146FDF729
:1024F000CEFE2168FDF7CEFE2946FDF773FEBDE84E
:10250000F041FEF7D9B800003333333F78000020A4
:102510009A99993E2DE9F0410A4D0E46074611461B
:10252000E868FDF7B7FE044631463846FDF7AFFED2
:10253000A968FDF7AFFE2146FDF754FEBDE8F04166
:10254000FEF7BAB87800002041F29411B0F90030DB
:102550004A42934202DB0A468B4200DD028070470A
:102560007047000010B5274C207801281FD1B4F91E
:102570000A00B4F90C1040F6B83201440020914230
:1025800006DC214AE169914202DC204A914237D9B6
:10259000E188491CE18009B2642932DD2070002104
:1025A000084600F03DF80021012000F039F82078BD
:1025B000002826D1E069B0F17F5F0CDA1449884227
:1025C00009D2B4F91600052805DA10F1050F02DD6D
:1025D0002089401C2081B4F90800B0F5C87F10DDC7
:1025E000012080F31388BFF34F8F0A4801680A4A1D
:1025F00001F4E06111430160BFF34F8F00BFFDE7BD
:10260000E08010BD0000002000002042000020C239
:10261000000008C10CED00E00400FA05704700005E
:1026200013B5044601A8FFF78FFF00221049012CC3
:102630000AD0002C07D1BDF90400002812DD0B6878
:10264000DA63096808641CBDBDF904000B68002842
:1026500003DD5863086882631CBD5A630968404201
:1026600088631CBD0B684042D863086802641CBDC7
:10267000A4000020FEF740BB30B58FB0282168468B
:10268000FDF798FD14210AA8FDF794FD0121080427
:10269000CDE900100024029402250491CDE90750F1
:1026A000000109906846FEF7AFFC08B172B6FEE77C
:1026B0000F20CDE90A054FF48060CDE90C400221DE
:1026C0000AA80E94FEF7B0FB002801D072B6FEE710
:1026D0000FB030BD704700000148FFF771B800002F
:1026E000A400002070B50268134B144C4FF08046D4
:1026F000984203D0B04201D0A04203D122F070052D
:102700004A682A43984203D0B04201D0A04203D184
:1027100022F44074CA6822434C6922F080022243AA
:1027200002608A68C2620A688262984201D10969BD
:1027300001630121416170BD002C01400004004093
:1027400010B501F01F030121046A99408C43046213
:10275000016A9A401143016210BD10B5846842EAD3
:10276000032224F47F440A432243826010BD82681E
:1027700022F070020A4342F00701816070470000B6
:1027800030B5026A22F001020262026A436884697B
:1027900024F073050C682C4322F002058A682A4352
:1027A0000A4DA8420BD122F00805CA6823F44073F1
:1027B0002A434D6922F004021D438B692B43436079
:1027C000846149684163026230BD0000002C014011
:1027D00030B5026A22F010020262026A436884691C
:1027E0000D6824F4E64444EA05248D6822F02002B2
:1027F00042EA05120B4DA8420ED1CD6822F08002AC
:1028000042EA05124D6923F4406343EA85038D696A
:1028100022F0400243EA8503436084614968816392
:10282000026230BD002C014030B5026A22F4807291
:102830000262036A4268C46923F4007324F07305DA
:102840000C682C438D6843EA05230C4DA8420ED139
:10285000CD6823F4006343EA05234D6922F4405216
:1028600042EA05128D6923F4806342EA0512426050
:10287000C4614968C163036230BD0000002C01409F
:1028800030B5026A22F480520262046A4268C36967
:102890000D6823F4E64343EA05238D6824F40054CD
:1028A00044EA0534064DA84204D14D6922F4804221
:1028B00042EA85124260C36149680164046230BD26
:1028C000002C014010B5036A046A24F0010404627C
:1028D000846924F0F00444EA021423F00A020A4353
:1028E0008461026210BD10B5036A23F01003036215
:1028F0008369046A23F4704343EA023224F0A0039C
:1029000043EA01118261016210BD000070B5044606
:1029100000680169E26821F44051114301612169B5
:10292000A0680843616908432168CA6841F20C63E2
:102930009A430243CA6020684169A26921F4407148
:10294000114341611E492068884202D1FEF712FB03
:1029500001E0FEF7FFFA00EBC00101EB0012606836
:1029600064218000B2FBF0F3B3FBF1F36FF01806C3
:102970007343B2FBF0F5B2FBF0F605EB83053223AF
:1029800003EB0515B5FBF1F5B6FBF1F605F0F00527
:1029900005EB0615B2FBF0F6B2FBF0F0B0FBF1F080
:1029A0006FF01802504306EB800003EB0010B0FB01
:1029B000F1F0216800F00F002844886070BD00002D
:1029C000003801402DE9F041984617460E4604466E
:1029D000069D1DE0681C1BD02DB1FEF787F9A0EB0A
:1029E0000800A84214D92068C16821F4D071C160E0
:1029F0002068416921F001014161202084F83D00F7
:102A000084F83E00002084F83C000320BDE8F081FB
:102A10002068006836EA000004D00020B842D9D00F
:102A20000020F3E70120F9E7FEE700000FB4054BB3
:102A300010B503A9044A029800F05CF910BC5DF8D7
:102A400014FB0000E94300089C000020490050EA04
:102A5000C12018BF04204A0D18BF40F0010040F209
:102A6000FF72B2EB515F08BF40F00200012808BFBF
:102A7000052070470907090E002804DB00F1E0205B
:102A800080F80014704700F00F0000F1E02080F89B
:102A9000141D70472DE9F0414F1E00EBC70104469D
:102AA000D1E9000115461E4637F006020DD02A4630
:102AB0003346FDF712FD7F1E04EBC703D3E9002365
:102AC000FDF764FC37F00602F1D1022F25D0042F68
:102AD00013D0062F18BFBDE8F0812A463346FDF714
:102AE000FCFCD4E90A23FDF751FC2A463346FDF7E6
:102AF000F4FCD4E90823FDF749FC2A463346FDF7E8
:102B0000ECFCD4E90623FDF741FC2A463346FDF7E9
:102B1000E4FCD4E90423FDF739FC2A463346FDF7EB
:102B2000DCFCD4E90223FDF731FC2A463346FDF7ED
:102B3000D4FCD4E90023BDE8F041FDF727BC012215
:102B4000FDF712BFFDF722BC0022134610461146C6
:102B5000FDF735BD024A00201107FDF705BF000053
:102B600001FDFFFF02E008C8121F08C1002AFAD1C8
:102B700070477047002001E001C1121F002AFBD1FD
:102B8000704700000149086070470000A000002065
:102B90002DE9FF5FDDE90220010DDDF838B00243C9
:102BA00018D044F61050A1F2FF3141430D140F9894
:102BB000012820D0A5EB0B00401C5FEA000A4FF073
:102BC0000004474EDFF81C91A046504616D5CAF1C6
:102BD000000728E00F98012443A2012808D0002113
:102BE00000980F9BC0E90021C0E90243BDE8FF9FA8
:102BF0006FEA0B01F4E7CBF10000DEE7074612E0D5
:102C0000F80707D02246334640464946FDF765FCA3
:102C1000804689462246334610461946FDF75DFC3C
:102C200004460E467F10002FEAD1DDE90201BAF119
:102C3000000F42464B4602DAFDF74FFC01E0FDF77C
:102C4000BEFC04460E460022284BFDF7BDFE03D80D
:102C50004FF0FF30014607E00022254B2046314669
:102C6000FDF794FBFDF797FE102409E0002C0ADB2A
:102C70000A220023FDF792FD019B30321A55641E93
:102C800050EA0102F2D1641C019AC4F11103144408
:102C90000F9A012A03D0012208430DD10AE008430C
:102CA00004D000204FF0110B0F9080E7A3EB0B0531
:102CB0006D1E0DE05B4504DD4FF0000205F10105DE
:102CC00004E003DA4FF00002A5F10105002AECD080
:102CD00000980F99C0E90231C0E9004586E700007D
:102CE000000024400000F03F300000000000F043EE
:102CF0000000E03F2DE9FF4F95B09B468946064610
:102D000000250FE2252877D100242746F84A012123
:102D1000059400E0044316F8013F203B01FA03F05C
:102D20001042F7D130782A2811D06FF02F03307875
:102D3000A0F13002092A16D8059A44F0020402EBE9
:102D4000820203EB42021044761C0590EFE759F82B
:102D5000042B0592002A03DA504244F400540590F3
:102D600044F00204761C30782E2816D116F8010F94
:102D700044F004042A280DD06FF02F023078A0F11F
:102D80003003092B09D807EB870302EB4303C7186D
:102D9000761CF3E759F8047B761C30786C280FD04A
:102DA00006DC4C2817D068280DD06A2814D104E01E
:102DB000742810D07A280FD10DE044F400140AE0F2
:102DC00044F4801401E044F440147278824202D149
:102DD00004F58014761C761C307866280BD013DC42
:102DE000582877D009DC002875D04528F6D0462829
:102DF000F4D047281AD19DE118E0632835D0642823
:102E000079D0652812D195E1702873D008DC672845
:102E1000F1D069286FD06E280DD06F2806D1B5E0AB
:102E200073282CD0752875D0782874D05A461799F5
:102E300090476D1C75E1C4F30250022809D00328A5
:102E40000DD0D9F8001004280DD00D6009F1040947
:102E500067E1D9F80010EA17C1E90052F6E7D9F89E
:102E600000100D80F2E70D70F0E719F8041B8DF8E3
:102E7000001000208DF80100EA46012003E059F817
:102E800004AB4FF0FF3061074FF0000102D40DE0BA
:102E900008F101018846B9420FDA8045F8DB1AF8DB
:102EA00008100029F4D108E008F1010188468142A8
:102EB000FADB1AF808100029F6D105985B46A0EB5A
:102EC000080721463846179A00F094FA284400EB88
:102ED000080507E04DE029E10DE01AF8010B5A461C
:102EE00017999047B8F10108F7D25B46214638465A
:102EF000179A13E142E00A220092C4F302524FF003
:102F0000000A022A08D059F804CB032A4FEAEC71D0
:102F10000AD00DE029E02AE009F1070121F00702BB
:102F2000F2E802C1914609E00FFA8CFC4FEAEC711D
:102F3000042A03D14FFA8CFC4FEAEC71002907DA1E
:102F40000A460021DCF1000C61EB02012D2202E0B7
:102F5000220504D52B228DF80420012203E0E2078C
:102F600001D02022F7E7904659E00A2102E0102222
:102F70000DE010214FF0000A00910BE010224FF0FD
:102F8000000A44F004040827009203E008224FF0EE
:102F9000000A0092C4F30252022A05D059F804CB69
:102FA0000021032A08D009E009F1070121F00702F6
:102FB000F2E802C1914605E01FFA8CFC042A01D117
:102FC0000CF0FF0C4FF00008220728D5702806D01F
:102FD000009B83F0100353EA0A0305D00EE0402261
:102FE0008DF80420012208E05CEA010206D03022BC
:102FF0008DF804208DF8050002229046009B83F096
:10300000080353EA0A030AD15CEA010201D162070C
:1030100005D530228DF804204FF001087F1E582876
:1030200004D034A003900EA802900DE036A0F9E77A
:1030300053466046009AFDF7B1FB84460398825CD4
:103040000298401E029002705CEA0100F0D10298E2
:1030500006A9081A00F1200A600702D524F480347A
:1030600000E00127574502DDA7EB0A0000E0002041
:1030700000EB0A01009005984144401A0590E003D6
:1030800006D45B462146179A059800F0B3F905442B
:10309000002706E001A85A46C05D179990476D1CAD
:1030A0007F1C4745F6DBE0030CD55B462146179AAB
:1030B000059800F09FF9054404E030205A4617991E
:1030C00090476D1C0099481E00900029F5DC08E02F
:1030D000029802995A460078491C02911799904724
:1030E0006D1CBAF10001AAF1010AF1DC65E10000F2
:1030F00009280100303132333435363738396162CE
:103100006364656600000000303132333435363791
:1031100038394142434445460000000000F058F968
:103120000544761C307800287FF4ECAD19B02846B1
:10313000BDE8F08F620700D4062709F1070222F0EC
:10314000070CFCE80223E14603F000485FEA080CA4
:1031500002D00FF2702C0DE05FEA045C02D50FF292
:10316000682C07E05FEAC47C02D00FF2602C01E01B
:10317000AFF2700C4FF0FF3823F00043CDF850C091
:1031800065280CD006DC452809D046281DD04728E4
:103190003DD13DE0662818D067287ED138E0002177
:1031A000112F01DB112000E0781CCDE9000106A9F8
:1031B0000EA8FFF7EDFCDDE90F010E9A0391002147
:1031C000009207F1010A04914DE04FF00040009792
:1031D000CDE9011006A90EA8FFF7DAFCDDE90F0220
:1031E00003920E9B11990022DDF80CA0009304922B
:1031F00011B9791C00EB010AB7EB0A0004D4C0F145
:10320000FF3007F1010A0490AAEB0700019044E0A7
:10321000012F00DA01270021112F01DD112000E02C
:103220003846CDE9000106A90EA8FFF7B1FCDDE99B
:103230000F010E9A0391002104910092BA462107D2
:103240000CD40399514500DA8A46BAF1010F05DD25
:10325000009AAAF10101515C302908D0B84202DA83
:1032600010F1040F06DA0121CDE9011015E0AAF1F1
:103270000101E9E7002805DC049901440491AAEB67
:10328000000102E0411C514500DD8A460499401AC4
:10329000401C01904FF000400290200704D4019898
:1032A000504501DBCDF8048000208DF84F000298D6
:1032B0000DF14F07B0F1004F25D02B200E90029852
:1032C0004FF0020800280CDA404202902D200E90A8
:1032D00007E00A210298FDF74BFA3031029007F817
:1032E000011DB8F10001A8F10108F2DC02980028E4
:1032F000EFD1791E0E980870307800F0200040F071
:10330000450007F8020D12A8C01B00F10708149829
:10331000007800B1012000EB0A01019801EBE07197
:1033200005984144401A401E0590E00306D45B46D0
:103330002146179A059800F05DF805441498007826
:1033400018B15A46179990476D1CE00324D55B4687
:103350002146179A059800F04DF805441CE00498A2
:10336000002807DBDDE90301884203DD0098405CAB
:10337000179901E0179930205A469047049805F1B3
:103380000105401C04900198401E019004D12E209C
:103390005A46179990476D1CBAF10001AAF1010A2B
:1033A000DDDC05E017F8010B5A46179990476D1CB4
:1033B000B8F10001A8F10108F4DC5B462146179A38
:1033C0000598ABE62D0000002B0000002000000057
:1033D0002DE9F041044600251E461746880404D412
:1033E00005E039462020B0476D1C641EF9D52846FB
:1033F000BDE8F0812DE9F041044600251E469046C7
:10340000C80301D5302700E02027880404D505E053
:1034100041463846B0476D1C641EF9D52846BDE8C4
:10342000F08100002DE9FE4F07460E460025684654
:1034300000F0E6FF00246FF00F0AE8464FF00109A4
:1034400057F8240056F82410401A00D54042FDF7E2
:1034500025F95146FCF78EFF58F8241011F0FF4F64
:103460000BD0FCF749FF4FF07E51FCF70DFF0A49E6
:1034700020F00040884205DC07E00849084408497C
:10348000884202D309FA04F00543641C032CD7DBFD
:103490002846BDE8FE8F0000295C0F3E666666C1C7
:1034A0009A99D9002DE9F04D8D4F21F0004A86B050
:1034B00005460C46BA452ADBAAEB070028430AD08A
:1034C0008848824501DC1AD1CDB106B02846BDE856
:1034D000F04DFFF734BB844A844B2846FCF7FDFFD0
:1034E00007460E46824A834B28462146FCF7F5FFE5
:1034F00006B03A463346BDE8F04DFCF747BF012021
:10350000FFF740FB06B0BDE8F04DFFF71DBB7A4862
:10351000824542DABAF1795F0BDA2846FFF796FA6C
:10352000042808BFFFF716FB284606B02146BDE871
:10353000F08D2A460B461046FCF7CFFF8346024625
:103540006E480E460B4606217844FFF7A3FA5A460A
:103550003346FCF7C2FF804669488A465A463346DE
:1035600004217844FFF796FA5A463346FCF7B5FF34
:1035700000223B46FCF70AFF02460B4640465146F6
:10358000FDF71DF82A462346FCF7A7FF06B02A469A
:103590002346BDE8F04DFCF7F9BE284624F0004173
:1035A00000223D463B46FCF795FF4FF0FF32FDF70A
:1035B000DBF90646024653480F460B46062178447F
:1035C000FFF768FA32463B46FCF787FFCDE900017A
:1035D0004D4832463B4604217844FFF75BFA3246B9
:1035E0003B46FCF77AFF00222B46FCF7CFFE8346D2
:1035F00002913046394602F043F9804643480D4671
:10360000504517DCDDE900015A46029BFCF7D7FF65
:1036100042462B46FCF761FF42462B46FCF7B6FEBE
:103620000122FDF7A1F9304A304BFCF750FF304A38
:10363000304B4CE04FF0000A52460B464046FCF738
:10364000A5FECDE9031052462B4610461946FCF75D
:1036500044FF32463B46FCF73DFFDDE90332FCF711
:10366000AEFF06460F46DDE900015A46029BFCF715
:10367000A6FF83460091012230463946FDF774F9D2
:10368000194A1A4BFCF726FF06460F460122404610
:103690002946FDF769F95A46009BFCF71EFF3246A2
:1036A0003B46FCF714FF06460F46012250462946CA
:1036B000FDF75AF90E4DDFF858802A464346FCF7CD
:1036C00009FF32463B46FCF705FF2A464346FCF716
:1036D00001FF002CD8BF81F0004106B0BDE8F08D9D
:1036E0000000F03F0000F07F075C143326A6913CF9
:1036F000182D4454FB21F93F0000E03FE42F000067
:10370000FA2F00006E2F0000842F00003333EF3FAC
:10371000FB21E93F2DE9F84F04460D4621F000401A
:1037200000917349814211DC7249884201DC06D163
:103730002CB120462946BDE8F84FFFF700BA6E4885
:10374000002DCCBF6D496E49BDE8F88F6D498142AF
:1037500011DD6D498142D8BF4FF0FF366DDD204647
:103760002946FFF773F9042808BFFFF7F3F920464D
:103770002946BDE8F88F6549654F25F0004581422F
:1037800033DD6449814219DD002632464FF0804323
:1037900020462946FCF7FAFD80468A46012220464B
:1037A0002946FDF7E1F800223B46FCF790FE424631
:1037B0005346FCF704FF04460D463EE00126002276
:1037C000BA463B4620462946FCF7E0FD80460F46B8
:1037D0000022534620462946FCF779FE42463B46E6
:1037E000FCF7EDFE04460D4627E04B4981421BDD08
:1037F000DFF828A102260022534620462946FCF77E
:103800006CFE00223B46FCF7C1FD80460F460022BD
:10381000534620462946FCF75AFE42463B46FCF7F3
:10382000CEFE04460D4608E0032622462B46002025
:103830003B49FCF7C4FE04460D4622462B46104683
:103840001946FCF74AFE8B46824602460B46FCF7B9
:1038500044FE07460246334888460B460621784414
:10386000FFF718F952465B46FCF737FE82462E48B2
:103870008B463A46434605217844FFF70BF93A4612
:103880004346FCF72AFE02460B46002E5046594698
:103890000CDAFCF77BFD22462B46FCF71EFE01B03E
:1038A00022462B46BDE8F04FFCF714BEFCF76EFD38
:1038B00022462B46FCF711FE1C4A7A4402EBC60353
:1038C000D3E90023FCF703FE22462B46FCF7FFFD5D
:1038D000174A7A4402EBC603D3E90023FCF7FAFD4A
:1038E000009A002AB8BF81F00041BDE8F88F0000BF
:1038F000000010440000F07F182D4454FB21F93FD4
:10390000FB21F9BF0000DC3F0000203E0000F33F38
:103910000000F03F0000E63F008003400000F83F59
:103920000000F0BF862D0000442D0000E22C0000B6
:10393000AA2C00002DE9F04D9446CCF1000423F0B0
:1039400000464CEA0404524F46EAD4749A4688462C
:1039500021F00042BC4206D8454240EA050442EA52
:10396000D474BC4204D9BDE8F04D6246FFF7EAB812
:10397000AAF14055A5F17F6555EA0C040BD002244D
:1039800004EAAA74434DDFF810E144EAD87452EA1D
:10399000000B04D00CE0BDE8F04DFFF7BBBE002CDF
:1039A00014BF012CBDE8F08D022C30D0032C32D096
:1039B00056EA0C0B0AD0BE4220D1BA4209D126F0F9
:1039C000804622F080423346114617E000291ADB78
:1039D00025E0DFF8C8B0FB44002C04BFDBE90001A0
:1039E000BDE8F08D012C02BFDBE9000181F0004150
:1039F000BDE8F08D022C0AD0032C0CD0BA4212D1B3
:103A0000B8F1000F0BDA23482549BDE8F08D2846B0
:103A10002449BDE8F08D28467146BDE8F08D1D486B
:103A20002149BDE8F08D921B12153C2AC4BF1948EC
:103A30001D490EDCBAF1000FBEBF12F13C0F002091
:103A4000014606DB6246FCF7BAFD21F00041FFF7B4
:103A500061FE002C08BFBDE8F08D012C04BF81F091
:103A60000041BDE8F08D114A114B022C07D0FCF744
:103A70002EFD2A46BDE8F04D0A4BFCF728BDFCF7A9
:103A800026FD2A46BDE8F04D064BFCF723BD00009D
:103A90000000F07F182D4454FB2109C03E2C00008B
:103AA000FB21F9BFFB210940FB21F93F075C1433DF
:103AB00026A6A13C08B560B120208DF80000282082
:103AC0008DF8010030208DF8020038208DF80300B9
:103AD00004E0A32204216846FCF765FB6A46042142
:103AE00040F69E2001F036FE01F0F4FA08BD000019
:103AF0003EB5044602208DF80000CA208DF8010072
:103B0000E3208DF8020009208DF803006A460421A5
:103B1000682001F01FFEA3208DF80000610609D582
:103B2000C0218DF80110C8218DF80210C2218DF836
:103B3000031005E08DF801008DF802008DF80300F8
:103B400014F4C07F09D0C4218DF80410CC218DF865
:103B50000510C6218DF8061005E08DF804008DF8DB
:103B600005008DF806008DF808008DF807008DF827
:103B700009006A460A2140F6A72001F0EBFDA007E4
:103B80004FF0D80503D020208DF8000001E08DF81B
:103B900000506A46012140F6B62001F0DBFDA00688
:103BA00001D5012000E0002000F08EF814F4C07F61
:103BB0001ED0E0050AD5B2208DF800008B208DF8CC
:103BC0000100B6208DF802009B2009E0B0208DF89E
:103BD000000080208DF80100B4208DF802009020B4
:103BE0008DF803006A46042140F6A22001F0B2FDE0
:103BF000E1074FF40B6022D0F8218DF800106A46DF
:103C0000012101F0A7FDFA21072000F039FB072070
:103C100000F004FB012000F021FB642000F0C4FB55
:103C20004FF4FA7000F0D0FBC821254800F0BEFA2E
:103C3000282000F0D3FA0A2000F0E0FA05E08DF821
:103C400000506A46012101F085FDA00703D5D92067
:103C50008DF8000001E08DF800506A46012140F225
:103C60003D7001F077FD600701D5012000E00020E4
:103C700000F048F8E00601D5012000E00020FFF741
:103C800019FF104D44F00800688101F023FA00206C
:103C9000A873600601D50620A87314F4C07F02D073
:103CA000A87B801DA87314F0140F02D0A87B1030DD
:103CB000A873A00702D0A87B001DA87300203EBDFA
:103CC00009E3CA02C00100200EB54FF4976310B19A
:103CD00006A107C901E008A207CA8DE807006A46E5
:103CE0000921184601F036FD0EBD0000B8AAB38DBB
:103CF000B4980D355D000000B8AAAAAAB088C3C563
:103D0000C700000008B560B1C0208DF80000C220D7
:103D10008DF80100C4208DF80200C6208DF8030044
:103D200004E08B2204216846FCF73DFA6A46042130
:103D300040F6982001F00EFD01F0CCF908BD00001E
:103D4000C8234FF48062024940F6F63001F0A4B86F
:103D5000345900082DE9FF4F89B01746DDE91652A6
:103D600000244C4E884681462C80A246B07B694692
:103D700001F03EF94FF0FF3B18B158460DB0BDE8D9
:103D8000F08F708910F0140F3CD0009909BA21F01F
:103D9000FF039DF803100B433B6001991B1409BA04
:103DA00021F0FF029DF807105B430A437A600299F5
:103DB0009DF80B4009BA21F0FF012143B960039C33
:103DC000091424BA24F0FF0C9DF80F4012144CEA99
:103DD000040CC7F80CC04FEA2C47494302FB0232DF
:103DE00007FB071111441024A1F17061B1F1007FAC
:103DF00004D901F06FF9A5F800A0BEE7298841F4C5
:103E0000807129804206694611D50A19A41D1388BC
:103E10005BBAA8F8003053885BBAA8F802309288E1
:103E200052BAA8F804202A8842F008022A8010F426
:103E3000C07F11D00A19A41D13885BBAA9F80030FD
:103E400053885BBAA9F80230928852BAA9F80420C4
:103E50002A8842F070022A80800716D00C44E0784D
:103E600000F0C00500F03F016078C00706D0C80828
:103E700001F007013268491C02B1904760780007E1
:103E800003D5716809B1A80988470C9800F06EFD48
:103E9000002073E7C00100202DE9FF41044603A87C
:103EA00000F0C8FEBDF80C00410CC3032F48028986
:103EB00002F00300550754F8200000D54042C2F339
:103EC000C105960654F8255000D56D42C2F38116FF
:103ED000D20554F8264000D56442A0FB0367C21700
:103EE00002FB037200FB0120820042EA9670A5FBF0
:103EF0000367EA1702FB037205FB0122950045EAFE
:103F00009672A4FB0367E51705FB037304FB0131FD
:103F10008B0043EA9671030E8DF80030030C8DF888
:103F20000130030A8DF802308DF80300100E8DF871
:103F30000400100C8DF80500100A8DF80600080E1C
:103F40008DF80800080C8DF80900080A8DF80A00A1
:103F50008DF807208DF80B106A460C214FF4257060
:103F600001F0F8FB04B0BDE8F0810000C0010020C2
:103F700030B5044613A285B007CA8DE807004FF09C
:103F8000FF35C82C16D8C820B0FBF4F1491E080A2A
:103F90008DF80C008DF80D1003AA022140F21620B6
:103FA00001F0D8FB30B96A460C2140F6C12001F07F
:103FB000D1FB10B1284605B030BD054884810020F2
:103FC000F9E70000FEF2ABC4AAF1DFDFBBAFDFDF31
:103FD000C0010020F8B53049098901F0030250F80A
:103FE00022404A0700D56442C1F3C1028B0650F853
:103FF000222000D55242C1F3811350F82330C80566
:1040000000D55B42254984FB0140850045EA947058
:1040100082FB0142A40F44EA820483FB0121950F35
:1040200045EA8105010E8DF80010010C8DF8011094
:10403000010A8DF802108DF803006A4604214FF43E
:10404000747001F087FB4FF0FF3688B9200E8DF8B1
:104050000000200C8DF80100200A8DF802008DF878
:1040600003406A4604214FF4757001F073FB08B1F8
:104070003046F8BD280E8DF80000280C8DF80100A0
:10408000280A8DF802008DF803506A4604214FF487
:10409000767001F05FFBF8BDC001002009E3CA02A1
:1040A0002DE9FF4104463CA004F0030300680290A0
:1040B0003AA0006803903AA006683AA0056802A8F2
:1040C000C15C8DF80010C4F3C101425C8DF8012081
:1040D000C4F38112805C8DF8020003A8C35C8DF8E4
:1040E0000430415C8DF80510805C8DF806006A464E
:1040F000032140F2264001F02DFB4FF0FF37E0BBDB
:1041000001AA032140F22A4001F024FBA8BBCDE91B
:10411000006560070BD59DF8000040F001008DF8A8
:1041200000009DF8040040F001008DF80400A00696
:104130000BD59DF8010040F001008DF801009DF8BD
:10414000050040F001008DF80500E0050BD59DF855
:10415000020040F001008DF802009DF8060040F0DA
:1041600001008DF806006A4603214FF4886001F0D3
:10417000F1FA10B901AA032100E004E040F2314055
:1041800001F0E8FA18B1384604B0BDE8F0810648FD
:1041900004810020F8E700004CCD6C000CC92C0015
:1041A0003656760026466600C00100204FF47A722B
:1041B00090FBF2F008B54843010E8DF80010010C99
:1041C0008DF80110010A8DF802108DF803006A467F
:1041D00004214FF4AE7001F0BDFA08BD0521B0FB1B
:1041E000F1F008B5010A8DF800108DF801006A465B
:1041F00002214FF4AD7001F0ADFA08BD0521B0FB0E
:10420000F1F008B5010A8DF800108DF801006A463A
:1042100002214FF4AC7001F09DFA08BD08B50021F1
:104220008DF80010C10702D030218DF800108107F1
:1042300005D59DF8001041F00C018DF800104007E5
:1042400005D59DF8000040F003008DF800006A4697
:1042500001214FF4A47001F07DFA08BD08B560B1EA
:10426000042800D90420401E8DF800006A46012170
:1042700040F24F1001F06EFA08BD0120F3E7000094
:104280002DE9FC41054640074FF0FF367CD0B1F5E3
:10429000C86F79D80846FCF70AFA3E49FCF72CF8B3
:1042A000074601A800F0A8FC9DF80400022806D0EB
:1042B00004280DD008282ED0102865D134E00E2116
:1042C0003846FCF757F8FCF710FA84B2324907E099
:1042D0000D213846FCF74EF8FCF707FA2F4984B257
:1042E0003846FBF7D7FFFCF700FA210A8DF80010DB
:1042F00080B28DF80140010A8DF802108DF803009C
:10430000E8076C4620D0224602214FF4EA7001F003
:1043100021FAC8BB11E00C213846FCF72BF8FCF75A
:10432000E4F984B21E49DBE70B213846FCF722F89A
:10433000FCF7DBF984B21B49D2E7A21C02214FF43F
:10434000927001F007FAF8B9A8070DD56A46022164
:104350004FF4EC7001F0FEF9B0B9A21C02214FF449
:10436000947001F0F7F978B9680710D56A46022110
:104370004FF4EE7001F0EEF930B9A21C02214FF4B7
:10438000967001F0E7F910B13046BDE8FC810020DD
:10439000FBE7000000004843000040460000C04525
:1043A000000040450000C0440521B0FBF1F008B515
:1043B000010A8DF800108DF801006A4602214FF4C1
:1043C000EF7001F0C7F908BD0521B0FBF1F008B5A9
:1043D000010A8DF800108DF801006A4602214FF4A1
:1043E000ED7001F0B7F908BD13B54FF6FF73012268
:1043F00069460248FDF716FC00981CBD7C010020B0
:104400002DE9FE430646264801AB042240680D21F3
:104410000078FDF7B3FD10B10720BDE8FE839DF8DD
:1044200004101C2000EAD1029DF80710DFF87490F8
:10443000C1F301131A438DF800209DF80520C1F344
:10444000810300EAD2021A438DF801209DF806206C
:1044500001F0030100EAD20008430024124F8DF856
:104460000200A0466D46285D10B146F824900AE08F
:1044700046F824800DE000BF56F824003946FBF7CB
:1044800009FF46F82400285D401E10F0FF00285563
:10449000F2D1641CE4B2032CE5D30020BDE7000098
:1044A000400000207B14AE3E1D5A843F2DE9FE4F94
:1044B00005460120C14E8DF800004FF000088DF830
:1044C000018030680C461746817C70686B4602227A
:1044D0000078FDF7C9FD4FF0FF3A00287AD1C820D7
:1044E000FCF708FB8DF8008030686B460122C17B29
:1044F00070680078FDF7B8FD0028EFD130686B4692
:104500000122417970680078FDF7AEFD0028E5D101
:1045100030686B460122817C70680078FDF7A4FD4D
:104520000028DBD130686B460122C17D70680078BD
:10453000FDF79AFD0028D1D130686B460122017940
:1045400070680078FDF790FD0028C7D14FF00C0986
:104550008DF8009030686B46012201797068007810
:10456000FDF782FD002835D10F20FCF7C3FAB06AB1
:104570006B460122407A8DF80000306881787068BF
:104580000078FDF771FD002824D1B06A6B46012246
:10459000007A8DF800003068417870680078FDF787
:1045A00063FD002873D1B06A807A0FB140F0E0005B
:1045B0008DF8000030686B460122817970680078C0
:1045C000FDF752FD002862D12FB1B06AC07A40F0E9
:1045D000E00001E04AE018208DF8000030686B46EA
:1045E0000122C17970680078FDF73EFDF0BB17B17C
:1045F000C820FCF77FFA40208DF8000030686B4639
:104600000122017970680078FDF72EFD70BB7820DB
:104610008DF8000030686B4601224179706800789F
:10462000FDF722FD10BB3220FCF764FA8DF8008004
:10463000306847466B464179706801220078FDF783
:1046400013FD98B931687068B046897A00786B4676
:104650000222FDF793FC48B9BDF80000AF6040BAF4
:10466000B0FBF9F06F60C6B22F6000E00FE0A7600A
:1046700067602760002739E0D8F80010D8F80400F8
:104680006B46C97A00780C22FDF778FC10B15046D1
:10469000BDE8FE8FBDF80000236840BA02B2BDF845
:1046A0000200BDF804101A44226040BA626800B2E9
:1046B0001044606049BAA06809B20844A060BDF81F
:1046C00006002B6840BA02B2BDF808001A4440BA8E
:1046D00001B2BDF80A002A606A6840BA11446960F4
:1046E000A96800B208447F1CFFB2A860B742C3D3D8
:1046F00028688322C117090441EA104100040023FD
:10470000FBF710FD32460023FBF70CFD28606868BC
:104710008322C117090441EA104100040023FBF77A
:1047200001FD32460023FBF7FDFC6860A868832288
:10473000C117090441EA104100040023FBF7F2FC11
:1047400032460023FBF7EEFCA86020684FF40065BA
:10475000C117090441EA104100042A460023FBF76F
:10476000E1FC32460023FBF7DDFC206060682A464E
:10477000C117090441EA104100040023FBF7D2FCF1
:1047800032460023FBF7CEFC6060A0682A46C117C2
:10479000090441EA104100040023FBF7C3FC324640
:1047A0000023FBF7BFFCA060002802DDA0F58030ED
:1047B00001E000F58030A060002069E740000020A3
:1047C0002DE9F84F81462E488846002540686B4603
:1047D000032200780D21FDF7D1FB10B10720BDE8C1
:1047E000F88F9DF80000002400F01F008DF80000F5
:1047F0009DF801006FF00F0B00F01F008DF8010015
:104800009DF802006E4600F01F008DF802004FF088
:10481000010A00BF59F8241058F82400081A00D5DE
:104820004042FBF73BFF5946FBF7A4FD0746305DCE
:10483000C0B1144802E01449FBF72CFD315D491E5C
:1048400011F0FF013155F6D101463846FBF754FD12
:104850004FF07E51FBF718FD0C4920F000408842D4
:1048600005DC07E00A483844B0F1D97F02D90AFADA
:1048700004F00543641C032CCCDB2846AFE70000A2
:10488000400000200000C84154E3853F295C0F3EF2
:104890000000E0BE00B5024600F00DF80346D01C53
:1048A00000F009F843EAC003901D00F004F843EA61
:1048B000801080B200BD90F90010002902DD4FF099
:1048C0000000704702DA4FF00400704790F90110C1
:1048D000002902DD4FF00100704702DA4FF00500B9
:1048E000704790F90200002802DD4FF00200704787
:1048F00002DA4FF0060070474FF0070070470000E3
:10490000FCF702FAFDF7B8FEFDF7CCFBFDF716FC4D
:10491000FDF7A6FCFDF7DEFCFDF718FDFDF7B6FA86
:104920000E4C01200E4D2070012220212846FCF75C
:10493000D8F90A4A1832911E881EFDF7B9FA074ABB
:104940002432111F081F00F03DF8E069FBF7E1FE7B
:1049500002460B4603A0FEF769F8E5E700000020D9
:104960000008014025660D0A0000000070470000A5
:104970002DE9F041124C20F00101002594F82400AB
:1049800010B10020BDE8F081A07A4FF0FF3668B189
:104990000840277C2074884200D0354641B1012070
:1049A00000F042FF00F096FB38B127743046E9E78B
:1049B000207D00B1012000F037FF2846E2E700002B
:1049C000400000202DE9F74F8EB00CA902A8CDE9D8
:1049D00000010BAB03AA09A907A8FFF7BBF918B19F
:1049E000012011B0BDE8F08FBDF80800C0057DD5ED
:1049F0000398FBF753FE6FF01D042146FBF7BAFC4A
:104A000082460498FBF74AFE2146FBF7B3FC814639
:104A10000598FBF743FE2146FBF7ACFC8046069861
:104A2000FBF73CFE2146FBF7A5FC0546012150465D
:104A3000FBF7A0FC06464146FBF72CFC04464FF072
:104A400040414846FBF726FC07462946FBF722FC77
:104A50002146FBF7C7FBFBF75CFEFEF723FD4FF09B
:104A6000663B5A463D4BFBF738FDFBF765FE0E995A
:104A7000086001214046FBF77DFC41460090FBF7B2
:104A800009FC044638464946FBF704FC2146FBF77F
:104A9000FBFB4FF07E51FBF7A5FBFBF73AFE074609
:104AA0000C4630464946FBF7F5FB0646294600987A
:104AB000FBF7F0FB3146FBF795FBFBF72AFE3A4686
:104AC0002346FEF737FF5A46244BFBF706FDFBF75C
:104AD00033FE0F99086029460846FBF7DBFB0746C3
:104AE00041460846FBF7D6FB064600E034E049465F
:104AF0000846FBF7CFFB044651460846FBF7CAFBC6
:104B00002146FBF76FFB3146FBF7BEFB3946FBF74F
:104B1000BBFBFBF7FEFD06460C4629465046FBF75D
:104B2000B9FB054641464846FBF7B4FB2946FBF76F
:104B300059FB0121FBF71EFCFBF7EBFD3246234638
:104B4000FEF7F8FE5A46054BFBF7C7FCFBF7F4FDF2
:104B500010990860002044E7022042E766A64C4016
:104B600010B500F0EDF808B10A2010BD782000F073
:104B700095FD10F0FF0F01D0012010BD7820FFF748
:104B8000F7FE10F0FF0F01D0022010BDC82000F08A
:104B900045FD10F0FF0F01D0032010BDFFF7D0F846
:104BA00010F0FF0F01D0042010BD1248FFF772FE75
:104BB000FFF776FA10F0FF0F01D0052010BD40F28C
:104BC0007310FEF795FF10F0FF0F01D0062010BD07
:104BD000C820FFF7CDF910F0FF0F01D0072010BD5E
:104BE00000F0E2FD012000F03FFC10F0FF00F6D0E5
:104BF000092010BD6C0000200D494A7A42B1012AFB
:104C000008D0022A0FD0032A0FD04FF0FF30704790
:104C1000022200E004220270C97C11B11106C90D04
:104C20000170002070470822F5E71022F3E700002A
:104C3000400000200F494A7A42B1012A09D0022AD5
:104C400011D0032A12D04FF0FF3070474FF480424A
:104C500001E041F69C720280C97C11B1C2F34E01A1
:104C60000180002070474FF48052F4E74FF4006257
:104C7000F1E70000400000200B49097A39B1012911
:104C800007D002290AD003290BD0002103E0FA2122
:104C900001E04FF4FA710180002070474FF47A71FF
:104CA000F9E74FF4FA61F6E7400000200A49097A73
:104CB00041B1012908D002290AD003290AD04FF0B6
:104CC000FF307047054900E005490160002070474A
:104CD0000449FAE70449F8E74000002000000343D4
:104CE0000000834233330342333383410C49C97A92
:104CF000072913D2DFE801F01204060A0C0E100097
:104D0000BC2100E062210180002070472A21FAE7DF
:104D10001421F8E70A21F6E70521F4E70021F2E77C
:104D200040000020054991F8242012B14FF0FF30D7
:104D30007047C989018000207047000040000020B2
:104D40002DE9FC414A4C80208DF8000020686B461C
:104D50000122817C60680078FDF786F94FF0FF370B
:104D600000287CD16420FBF7C5FE00258DF800509B
:104D700020686B460122817C60680078FDF774F939
:104D800000286CD120686B460622817D606800781F
:104D9000FDF7F4F8002862D19DF805009DF8031096
:104DA000C007400F01F0010140EA41009DF80110E9
:104DB0004FF0010601F00101084305D0012801D0A0
:104DC000022811D0E67410E020686B460122C178F9
:104DD00060680078FDF7D2F840BB9DF8000010F045
:104DE0000F0020D0042822D0E574FF2004F80A0F19
:104DF0004FF6FF7104F8020C04F8010C6070A180FA
:104E0000A0712072A67026766576E572A572E560BF
:104E100025616561A576E576A5834FF4FA6000F01B
:104E20005FFB18B907E01348FDF700FE17E012A07A
:104E3000FDF7FCFDC6E7022000F074FA78B92A20DD
:104E400000F0B6FB58B9322000F0E8FB38B900207A
:104E5000FFF78EFD18B9002000F098FA10B138461F
:104E6000BDE8FC81002000F019FC0020F8E70000FC
:104E7000400000202066000848616C662073656E63
:104E80007369746976697479207061727420666FD1
:104E9000756E642E0A0000002DE9FF4FDFF8948044
:104EA000064685B098F8250015460F464FF0FF39A5
:104EB000B0BBAFB3002420E0301B102800DD102071
:104EC00080B283463A1901469246204600F042FCE1
:104ED00030BB6A465946204600F0D2F800BB504627
:104EE0005A466946FBF771F920B16FF0010009B02D
:104EF000BDE8F08F04EB0B0084B2B442DCD3280A87
:104F00008DF810008DF81150D8F80000444604AB1D
:104F1000817ED8F8040002220078FDF7A5F808B1D8
:104F20004846E4E7012084F825000898E084002042
:104F3000DDE70000400000202DE9F84305464FF072
:104F4000FF39282844D80727284C00267DB10120A6
:104F500000F0FCFA20208DF800004FF00108012D30
:104F600017D0052D18D88DF8018005201FE00020EE
:104F700000F0ECFA8DF800608DF8017020686B4647
:104F80000222817C60680078FDF76EF800BB267510
:104F900029E08DF80160E8E7142D04D802208DF88F
:104FA00001000A2003E003208DF80100142000F026
:104FB000FFFA9DF801006B4607EB80108DF80100A9
:104FC00020680222817C60680078FDF74DF810B1FE
:104FD0004846BDE8F8830820A072267384F8148040
:104FE0000020FFF7C5FC0020F3E700004000002090
:104FF0002DE9F843214C0646174694F824008946CB
:105000004FF0FF3890B3A07A80B320686B4602223D
:10501000817A60680078FCF7B1FF38BBBDF800000A
:1050200045BAB54202D2002038701FE0606841885E
:10503000B5EB510F11D9216800786B46497C0122EC
:10504000FCF79CFF90B99DF80000C00605D500F064
:1050500041F86FF00100BDE8F8832068F2B24B46DA
:10506000C17A60680078FCF789FF08B14046F2E732
:10507000B5FBF6F0401E38700020ECE74000002041
:10508000F8B516000D464FF0FF371FD0104CA17A2F
:10509000E1B1010A8DF80010C0B28DF8010041198C
:1050A00060684289914211D8216800786B46097E78
:1050B0000222FCF7D9FF48B92068EAB23346417DA5
:1050C00060680078FCF75AFF002800D03846F8BD29
:1050D00040000020F8B5564C4FF0FF36A07A00286B
:1050E0007DD000258DF8005020686B460122C17BE1
:1050F00060680078FCF7B8FF002870D120686B4624
:105100000122417960680078FCF7AEFF002866D183
:1051100020686B460122017960680078FCF7A4FFE3
:1051200000285CD194F82400E0B30C208DF8000036
:1051300020686B460122017960680078FCF794FFD3
:10514000002872D13220FBF7D5FCC0208DF800007A
:10515000A07AC00702D0E0208DF8000020686B46DE
:105160000122017960680078FCF77EFF00285CD19D
:10517000607C18B102208DF8000001E08DF800502D
:1051800020686B460122C17B60680078FCF76CFFE9
:1051900028BB8DF8005020686B4601224179606879
:1051A00000783EE0FFE704208DF8000020686B46A1
:1051B0000122017960680078FCF756FF78B9A07C7D
:1051C00090B9A07AC0070FD05FF060008DF80000A2
:1051D00020686B46012201796068007800E024E0D5
:1051E000FCF742FF08BB01E04020EFE73220FBF76D
:1051F00081FC607C18B101208DF8000001E08DF881
:10520000005020686B460122C17B60680078FCF783
:105210002BFF50B92068064B01224179606810339A
:105220000078FCF721FF002800D03046F8BD0000D0
:10523000400000202DE9F047394C82468AB094F8AE
:1052400024000F4620B1002000F00EF9012600E0F6
:10525000002607A8FFF710FD06A8FFF7CDFC09A858
:10526000FFF744FD08A8FFF75DFD94F80A9094F855
:1052700010800025002239465046FFF717F910B17B
:105280006D1C022DF6DB022D1AD00025012203A988
:105290006846FFF70BF910B16D1C022DF6DB022DED
:1052A0000ED003A93846FEF7BDF8C7B2694650468E
:1052B000FFF786FA10F0FF0F4FF0000502D002E072
:1052C000002503E001250FB945F00205FF202072FB
:1052D0006072E0724FF6FF71E181A07220740120CC
:1052E0002073BDF81C0000F0FBF89DF8180000F0DA
:1052F00019F8BDF8240000F05BF9BDF8200000F0BB
:105300008DF9484600F0CAF94046FFF731FB16B167
:10531000012000F0A9F80AB02846BDE8F087000097
:105320004000002038B5184C4FF0FF35A17A19B372
:10533000022806D0042806D008280ED010281BD139
:105340000DE0002000E008208DF80000607A9DF854
:105350000010B0EBD10F04D005E01020F4E71820C6
:10536000F2E7002038BD20686B460122C1796068F1
:105370000078FCF779FE08B1284638BD9DF800009A
:10538000C0086072EDE7000040000020F8B5354C21
:105390000546A07CA84201D10020F8BD31484FF05D
:1053A000FF366B46D0E900104FF001020979007812
:1053B00035B3FCF7E3FD70BB9DF800006B4620F0B1
:1053C00020008DF8000020680122017960680078D3
:1053D000FCF74AFEF8B90320FBF78CFB02208DF89E
:1053E000000094F8220078B382202BE020686B46FE
:1053F0000122017D60680078FCF736FE58B92EE086
:10540000FCF7BCFD38B9A07AC0079DF8000003D0B6
:1054100040F0200002E00CE020F020008DF80000B9
:1054200020686B460122017960680078FCF71CFE59
:1054300008B13046F8BD0320FBF75CFB94F822006E
:1054400000B180208DF8000094F823000028CDD012
:105450009DF8000040F030008DF80000C6E7A5740C
:105460009AE700004000002038B51C4C94F8241046
:1054700081421DD0002500B394F82500D0B1002052
:1054800000F0D2F90020FFF781FFE08C00F0C6F8B1
:105490008DF8005060686B46012200782321FCF7EC
:1054A000E3FD012084F8240000F0BEF9FFF712FEAE
:1054B000002038BD4FF0FF3038BD002000F0B4F9B7
:1054C000207C8DF8000060686B4601220078232163
:1054D000FCF7CAFD84F82450E8E7000040000020F3
:1054E00038B5194C4FF0FF35A17A31B3FA2809D0FD
:1054F000B0F5FA7F08D0B0F57A7F0FD0B0F5FA6F2B
:105500001BD10DE0002000E008208DF80000207A7B
:105510009DF80010B0EBD10F04D005E01020F4E7A7
:105520001820F2E7002038BD20686B4601228179FF
:1055300060680078FCF798FD08B1284638BD9DF8F2
:105540000000C0082072EDE74000002038B5174C7D
:10555000054694F82300A84201D1002038BD0DB1C2
:10556000302000E000208DF80000A07C28B19DF8DC
:10557000000040F002008DF8000094F8220028B1ED
:105580009DF8000040F080008DF8000020686B4618
:105590000122017D60680078FCF766FD10B14FF0D4
:1055A000FF3038BD84F82350D7E7000040000020CA
:1055B00038B5194C4FF0FF35A17A31B3BC2801D36F
:1055C000012010E0622801D302200CE02A2801D338
:1055D000032008E0142801D3042004E00A2801D3A2
:1055E000052000E006208DF80000E07A9DF800100C
:1055F000884201D1002038BD20686B4601228178A5
:1056000060680078FCF730FD08B1284638BD9DF889
:105610000000E072EEE7000040000020F8B51E4DEB
:1056200004464FF0FF37A87A48B395F8240030BB02
:10563000287D4FF47A7648B164B1282C03D8E0B2C3
:10564000FFF77AFC26E00020FFF776FC042C05D259
:10565000042406E00020FFF76FFCF9E7B44200D90C
:105660003446B6FBF4F0401E8DF8000028686B4607
:105670000122417868680078FCF7F6FC08B13846EA
:10568000F8BD9DF80000401CB6FBF0F0E881400832
:10569000FFF78EFF0020F8BD40000020F8B505465A
:1056A00010F0700F4FF0000601D0012004E015B19A
:1056B0008DF8006002E040208DF80000244C6B461D
:1056C00001222068817C60680078FCF7CDFC4FF0F7
:1056D000FF3760BB9DF8000020F0400020738DF87C
:1056E0000060680602D404208DF80000A80605D4E6
:1056F0009DF8000040F002008DF80000E80605D497
:105700009DF8000040F001008DF80000280705D446
:105710009DF8000040F038008DF8000020686B46CE
:105720000122C17C60680078FCF79EFC10B1A67273
:105730003846F8BD25B1082D02D00020FFF706FF3E
:10574000A57226753220FBF7D5F90020F8BD0000C0
:1057500040000020F8B516000D464FF0FF371FD06F
:10576000104CA17AE1B1010A8DF80010C0B28DF899
:105770000100411960684289914211D8216800787E
:105780006B46097E0222FCF76FFC48B92068EAB23A
:105790003346417D60680078FCF766FC002800D045
:1057A0003846F8BD4000002010B588B0694604A80E
:1057B000FFF740FD072802D0012008B010BD07A860
:1057C000FFF774FA0498FAF769FF07990C46FAF79D
:1057D00061FDFAF771FF04900598FAF75FFF214623
:1057E000FAF758FDFAF768FF05900698FAF756FFA2
:1057F0002146FAF74FFDFAF75FFF069004A8FEF77F
:10580000E9FB03A8FFF716FABDF80C000099414325
:1058100000910199414301910299414368460291E7
:10582000FEF73AFB0020C8E7F8B5144C01462246C3
:1058300094F82460D2E9000200235D1E56B179B1CC
:10584000022111E0C17B10786B460122FCF70CFCB1
:1058500068B90EE0A67A56B111B1617C61B902E077
:105860008DF80030EEE701218DF80010EAE72846B8
:10587000F8BD9DF8000060740020F8BD40000020D5
:105880002DE9F04106460F46FBF7C8F8041E0D4609
:1058900018BF0120284320F00040C0F17F6000F1D4
:1058A000E040C00F0ED0301C18BF0120384320F05C
:1058B0000040C0F17F6000F1E040C00F04BF012054
:1058C000FDF760F920462946BDE8F08100000000A0
:1058D00000000000010203040607080900000000A0
:1058E0000102030475191A0C6A231B1C1F20727411
:1058F000433B4138393A6B6C376F06246D6E70004C
:105900006800000476005401F7FD000183000000E8
:1059100000080000000100183200050000002041CE
:105920000000D242295C0F3E9A99993E3333733F6F
:10593000295C0F3E000070000000002400000002FF
:105940000003000000650054FFEF0000FA80000B28
:1059500012820001030C30C30E8C8CE914D5400276
:1059600013710F8E3883F8833000F883258EF88307
:105970003000F883FFFFFFFF0FFEA9D624000400CC
:105980001A8279A10000003CFFFF00000010000017
:1059900038836FA2003E03304000000002CAE309D2
:1059A0003E800000200000000000000040000000D9
:1059B00060000000000C0000000C186E0000069251
:1059C0000A16C0DFFFFF0256FD8CD377FFE1C496B5
:1059D000E0C5BEAA00000000FFFF0B2B0000165719
:1059E000000003594000000000001DFA00026C1D79
:1059F000000000003FFFDFEB003EB3B6000D227851
:105A000000002F3C00000000001942B5000039A240
:105A10000000B365D90E9FC91DCF4C343000000083
:105A2000500000003BB67AE80064000000C80000A7
:105A300000000000100000001000FA921000225E2A
:105A4000000D229F0001000000320000FF46000010
:105A500063D400001000000004D6000004CC000055
:105A600004CC0000000010720000004000000000A4
:105A70000000000000060002000500070000000012
:105A80000064000000000000000000050005006444
:105A900000200000000000000000000000004000A6
:105AA0000000030000000032F8980000FF650000CD
:105AB000830F0000FF9BFC000000000000000000BE
:105AC00000000000000000000000000000000000D6
:105AD00000000000000000000000000000000000C6
